{
  "contractName": "RevApp",
  "abi": [
    {
      "inputs": [],
      "stateMutability": "nonpayable",
      "type": "constructor"
    },
    {
      "anonymous": false,
      "inputs": [
        {
          "indexed": false,
          "internalType": "uint256",
          "name": "_ReviewId",
          "type": "uint256"
        },
        {
          "indexed": false,
          "internalType": "string",
          "name": "_Algorithm",
          "type": "string"
        },
        {
          "indexed": false,
          "internalType": "uint256[]",
          "name": "_ProductReviews",
          "type": "uint256[]"
        },
        {
          "indexed": false,
          "internalType": "uint256[]",
          "name": "_AuthorReviews",
          "type": "uint256[]"
        },
        {
          "indexed": false,
          "internalType": "string",
          "name": "_Product",
          "type": "string"
        }
      ],
      "name": "InsertedReview",
      "type": "event"
    },
    {
      "stateMutability": "payable",
      "type": "fallback",
      "payable": true
    },
    {
      "inputs": [],
      "name": "reviewId",
      "outputs": [
        {
          "internalType": "uint256",
          "name": "",
          "type": "uint256"
        }
      ],
      "stateMutability": "view",
      "type": "function",
      "constant": true
    },
    {
      "inputs": [
        {
          "internalType": "string",
          "name": "_Content",
          "type": "string"
        },
        {
          "internalType": "string",
          "name": "_Product",
          "type": "string"
        },
        {
          "internalType": "string",
          "name": "_User",
          "type": "string"
        }
      ],
      "name": "insertReview",
      "outputs": [],
      "stateMutability": "payable",
      "type": "function",
      "payable": true
    },
    {
      "inputs": [
        {
          "internalType": "string",
          "name": "_Content",
          "type": "string"
        },
        {
          "internalType": "string",
          "name": "_Product",
          "type": "string"
        }
      ],
      "name": "insertReview",
      "outputs": [],
      "stateMutability": "payable",
      "type": "function",
      "payable": true
    },
    {
      "inputs": [
        {
          "internalType": "string",
          "name": "_Algorithm",
          "type": "string"
        }
      ],
      "name": "_insertAlgorithm",
      "outputs": [],
      "stateMutability": "nonpayable",
      "type": "function"
    },
    {
      "inputs": [
        {
          "internalType": "address payable",
          "name": "_to",
          "type": "address"
        },
        {
          "internalType": "uint256",
          "name": "_ammount",
          "type": "uint256"
        }
      ],
      "name": "_sendRefund",
      "outputs": [],
      "stateMutability": "payable",
      "type": "function",
      "payable": true
    },
    {
      "inputs": [
        {
          "internalType": "uint256",
          "name": "_Id",
          "type": "uint256"
        },
        {
          "internalType": "string",
          "name": "_Content",
          "type": "string"
        },
        {
          "internalType": "string",
          "name": "_Product",
          "type": "string"
        }
      ],
      "name": "updateReviewContent",
      "outputs": [],
      "stateMutability": "nonpayable",
      "type": "function"
    },
    {
      "inputs": [
        {
          "internalType": "uint256",
          "name": "_Id",
          "type": "uint256"
        },
        {
          "internalType": "string",
          "name": "_Content",
          "type": "string"
        },
        {
          "internalType": "string",
          "name": "_Product",
          "type": "string"
        },
        {
          "internalType": "string",
          "name": "_User",
          "type": "string"
        }
      ],
      "name": "updateReviewContent",
      "outputs": [],
      "stateMutability": "nonpayable",
      "type": "function"
    },
    {
      "inputs": [
        {
          "internalType": "uint256",
          "name": "_ReviewId",
          "type": "uint256"
        },
        {
          "internalType": "string",
          "name": "_Result",
          "type": "string"
        }
      ],
      "name": "updateReviewResult",
      "outputs": [],
      "stateMutability": "nonpayable",
      "type": "function"
    },
    {
      "inputs": [
        {
          "internalType": "string",
          "name": "_Product",
          "type": "string"
        },
        {
          "internalType": "string",
          "name": "_FileHash",
          "type": "string"
        }
      ],
      "name": "updateProductFile",
      "outputs": [],
      "stateMutability": "nonpayable",
      "type": "function"
    },
    {
      "inputs": [
        {
          "internalType": "string",
          "name": "_Product",
          "type": "string"
        }
      ],
      "name": "getProductById",
      "outputs": [
        {
          "internalType": "string",
          "name": "",
          "type": "string"
        }
      ],
      "stateMutability": "nonpayable",
      "type": "function"
    },
    {
      "inputs": [
        {
          "internalType": "string",
          "name": "_Product",
          "type": "string"
        }
      ],
      "name": "getReviewIdsForProduct",
      "outputs": [
        {
          "internalType": "uint256[]",
          "name": "",
          "type": "uint256[]"
        }
      ],
      "stateMutability": "view",
      "type": "function",
      "constant": true
    },
    {
      "inputs": [
        {
          "internalType": "string",
          "name": "_Product",
          "type": "string"
        }
      ],
      "name": "getReviewCountForProduct",
      "outputs": [
        {
          "internalType": "int256",
          "name": "",
          "type": "int256"
        }
      ],
      "stateMutability": "view",
      "type": "function",
      "constant": true
    },
    {
      "inputs": [
        {
          "internalType": "string",
          "name": "_Product",
          "type": "string"
        },
        {
          "internalType": "uint256",
          "name": "_Page",
          "type": "uint256"
        },
        {
          "internalType": "uint256",
          "name": "_PageSize",
          "type": "uint256"
        }
      ],
      "name": "getReviewIdsForProductByPage",
      "outputs": [
        {
          "internalType": "uint256[]",
          "name": "",
          "type": "uint256[]"
        }
      ],
      "stateMutability": "view",
      "type": "function",
      "constant": true
    },
    {
      "inputs": [
        {
          "internalType": "string",
          "name": "_Author",
          "type": "string"
        }
      ],
      "name": "getReviewIdsForAuthor",
      "outputs": [
        {
          "internalType": "uint256[]",
          "name": "",
          "type": "uint256[]"
        }
      ],
      "stateMutability": "view",
      "type": "function",
      "constant": true
    },
    {
      "inputs": [
        {
          "internalType": "uint256",
          "name": "_ReviewId",
          "type": "uint256"
        }
      ],
      "name": "getReviewById",
      "outputs": [
        {
          "internalType": "string",
          "name": "",
          "type": "string"
        },
        {
          "internalType": "string",
          "name": "",
          "type": "string"
        }
      ],
      "stateMutability": "view",
      "type": "function",
      "constant": true
    },
    {
      "inputs": [],
      "name": "getAlgorithm",
      "outputs": [
        {
          "internalType": "string",
          "name": "",
          "type": "string"
        }
      ],
      "stateMutability": "view",
      "type": "function",
      "constant": true
    },
    {
      "inputs": [],
      "name": "getFreeInsertForAddress",
      "outputs": [
        {
          "internalType": "bool",
          "name": "",
          "type": "bool"
        }
      ],
      "stateMutability": "view",
      "type": "function",
      "constant": true
    },
    {
      "inputs": [
        {
          "internalType": "string",
          "name": "_Product",
          "type": "string"
        }
      ],
      "name": "payForReviews",
      "outputs": [],
      "stateMutability": "payable",
      "type": "function",
      "payable": true
    },
    {
      "inputs": [
        {
          "internalType": "address",
          "name": "account",
          "type": "address"
        }
      ],
      "name": "toString",
      "outputs": [
        {
          "internalType": "string",
          "name": "",
          "type": "string"
        }
      ],
      "stateMutability": "pure",
      "type": "function",
      "constant": true
    },
    {
      "inputs": [
        {
          "internalType": "uint256",
          "name": "value",
          "type": "uint256"
        }
      ],
      "name": "toString",
      "outputs": [
        {
          "internalType": "string",
          "name": "",
          "type": "string"
        }
      ],
      "stateMutability": "pure",
      "type": "function",
      "constant": true
    },
    {
      "inputs": [
        {
          "internalType": "bytes",
          "name": "data",
          "type": "bytes"
        }
      ],
      "name": "toString",
      "outputs": [
        {
          "internalType": "string",
          "name": "",
          "type": "string"
        }
      ],
      "stateMutability": "pure",
      "type": "function",
      "constant": true
    },
    {
      "inputs": [
        {
          "internalType": "bytes32",
          "name": "value",
          "type": "bytes32"
        }
      ],
      "name": "toString",
      "outputs": [
        {
          "internalType": "string",
          "name": "",
          "type": "string"
        }
      ],
      "stateMutability": "pure",
      "type": "function",
      "constant": true
    },
    {
      "inputs": [],
      "name": "isTime",
      "outputs": [
        {
          "internalType": "bool",
          "name": "",
          "type": "bool"
        }
      ],
      "stateMutability": "view",
      "type": "function",
      "constant": true
    },
    {
      "inputs": [
        {
          "internalType": "uint256",
          "name": "_amount",
          "type": "uint256"
        }
      ],
      "name": "isMoney",
      "outputs": [
        {
          "internalType": "bool",
          "name": "",
          "type": "bool"
        }
      ],
      "stateMutability": "view",
      "type": "function",
      "constant": true
    },
    {
      "inputs": [
        {
          "internalType": "string",
          "name": "_Product",
          "type": "string"
        },
        {
          "internalType": "address",
          "name": "_User",
          "type": "address"
        }
      ],
      "name": "checkPayment",
      "outputs": [
        {
          "internalType": "bool",
          "name": "",
          "type": "bool"
        }
      ],
      "stateMutability": "view",
      "type": "function",
      "constant": true
    }
  ],
  "bytecode": "0x6080604052600160005534801561001557600080fd5b5033600260006101000a81548173ffffffffffffffffffffffffffffffffffffffff021916908373ffffffffffffffffffffffffffffffffffffffff160217905550613d88806100666000396000f3fe60806040526004361061016a5760003560e01c806362782df0116100d1578063b7e399c11161008a578063d387afb511610064578063d387afb5146113ca578063e9f4aa25146115ca578063f616494d14611685578063f9d15d65146117b65761016b565b8063b7e399c11461107c578063bf039df914611144578063ce12d1f2146112ad5761016b565b806362782df014610ba05780636900a3ae14610c3057806371aad10d14610ce457806371eac02714610e2557806384d76a5814610f77578063b11a19e814610fc85761016b565b80633fc932e9116101235780633fc932e9146105f3578063405eae911461064157806349f395731461066e57806356ca623e1461085757806356f5542b146109215780635dd302c114610a805761016b565b80630b899fd31461016d5780630f82f2f71461019a57806320fceae81461026c5780632352d4aa1461029757806332b68fe3146103d857806333170251146104d65761016b565b5b005b34801561017957600080fd5b50610182611892565b60405180821515815260200191505060405180910390f35b3480156101a657600080fd5b5061026a600480360360408110156101bd57600080fd5b8101908080359060200190929190803590602001906401000000008111156101e457600080fd5b8201836020820111156101f657600080fd5b8035906020019184600183028401116401000000008311171561021857600080fd5b91908080601f016020809104026020016040519081016040528093929190818152602001838380828437600081840152601f19601f820116905080830192505050505050509192919290505050611935565b005b34801561027857600080fd5b506102816119be565b6040518082815260200191505060405180910390f35b3480156102a357600080fd5b5061035d600480360360208110156102ba57600080fd5b81019080803590602001906401000000008111156102d757600080fd5b8201836020820111156102e957600080fd5b8035906020019184600183028401116401000000008311171561030b57600080fd5b91908080601f016020809104026020016040519081016040528093929190818152602001838380828437600081840152601f19601f8201169050808301925050505050505091929192905050506119c4565b6040518080602001828103825283818151815260200191508051906020019080838360005b8381101561039d578082015181840152602081019050610382565b50505050905090810190601f1680156103ca5780820380516001836020036101000a031916815260200191505b509250505060405180910390f35b3480156103e457600080fd5b506104be600480360360408110156103fb57600080fd5b810190808035906020019064010000000081111561041857600080fd5b82018360208201111561042a57600080fd5b8035906020019184600183028401116401000000008311171561044c57600080fd5b91908080601f016020809104026020016040519081016040528093929190818152602001838380828437600081840152601f19601f820116905080830192505050505050509192919290803573ffffffffffffffffffffffffffffffffffffffff169060200190929190505050611b1e565b60405180821515815260200191505060405180910390f35b3480156104e257600080fd5b5061059c600480360360208110156104f957600080fd5b810190808035906020019064010000000081111561051657600080fd5b82018360208201111561052857600080fd5b8035906020019184600183028401116401000000008311171561054a57600080fd5b91908080601f016020809104026020016040519081016040528093929190818152602001838380828437600081840152601f19601f820116905080830192505050505050509192919290505050611c61565b6040518080602001828103825283818151815260200191508051906020019060200280838360005b838110156105df5780820151818401526020810190506105c4565b505050509050019250505060405180910390f35b61063f6004803603604081101561060957600080fd5b81019080803573ffffffffffffffffffffffffffffffffffffffff16906020019092919080359060200190929190505050611d25565b005b34801561064d57600080fd5b50610656611dca565b60405180821515815260200191505060405180910390f35b6108556004803603606081101561068457600080fd5b81019080803590602001906401000000008111156106a157600080fd5b8201836020820111156106b357600080fd5b803590602001918460018302840111640100000000831117156106d557600080fd5b91908080601f016020809104026020016040519081016040528093929190818152602001838380828437600081840152601f19601f8201169050808301925050505050505091929192908035906020019064010000000081111561073857600080fd5b82018360208201111561074a57600080fd5b8035906020019184600183028401116401000000008311171561076c57600080fd5b91908080601f016020809104026020016040519081016040528093929190818152602001838380828437600081840152601f19601f820116905080830192505050505050509192919290803590602001906401000000008111156107cf57600080fd5b8201836020820111156107e157600080fd5b8035906020019184600183028401116401000000008311171561080357600080fd5b91908080601f016020809104026020016040519081016040528093929190818152602001838380828437600081840152601f19601f820116905080830192505050505050509192919290505050611e6d565b005b34801561086357600080fd5b506108a66004803603602081101561087a57600080fd5b81019080803573ffffffffffffffffffffffffffffffffffffffff16906020019092919050505061233f565b6040518080602001828103825283818151815260200191508051906020019080838360005b838110156108e65780820151818401526020810190506108cb565b50505050905090810190601f1680156109135780820380516001836020036101000a031916815260200191505b509250505060405180910390f35b34801561092d57600080fd5b50610a7e6004803603604081101561094457600080fd5b810190808035906020019064010000000081111561096157600080fd5b82018360208201111561097357600080fd5b8035906020019184600183028401116401000000008311171561099557600080fd5b91908080601f016020809104026020016040519081016040528093929190818152602001838380828437600081840152601f19601f820116905080830192505050505050509192919290803590602001906401000000008111156109f857600080fd5b820183602082011115610a0a57600080fd5b80359060200191846001830284011164010000000083111715610a2c57600080fd5b91908080601f016020809104026020016040519081016040528093929190818152602001838380828437600081840152601f19601f820116905080830192505050505050509192919290505050612389565b005b348015610a8c57600080fd5b50610ab960048036036020811015610aa357600080fd5b810190808035906020019092919050505061240e565b604051808060200180602001838103835285818151815260200191508051906020019080838360005b83811015610afd578082015181840152602081019050610ae2565b50505050905090810190601f168015610b2a5780820380516001836020036101000a031916815260200191505b50838103825284818151815260200191508051906020019080838360005b83811015610b63578082015181840152602081019050610b48565b50505050905090810190601f168015610b905780820380516001836020036101000a031916815260200191505b5094505050505060405180910390f35b348015610bac57600080fd5b50610bb561257e565b6040518080602001828103825283818151815260200191508051906020019080838360005b83811015610bf5578082015181840152602081019050610bda565b50505050905090810190601f168015610c225780820380516001836020036101000a031916815260200191505b509250505060405180910390f35b348015610c3c57600080fd5b50610c6960048036036020811015610c5357600080fd5b8101908080359060200190929190505050612620565b6040518080602001828103825283818151815260200191508051906020019080838360005b83811015610ca9578082015181840152602081019050610c8e565b50505050905090810190601f168015610cd65780820380516001836020036101000a031916815260200191505b509250505060405180910390f35b348015610cf057600080fd5b50610daa60048036036020811015610d0757600080fd5b8101908080359060200190640100000000811115610d2457600080fd5b820183602082011115610d3657600080fd5b80359060200191846001830284011164010000000083111715610d5857600080fd5b91908080601f016020809104026020016040519081016040528093929190818152602001838380828437600081840152601f19601f820116905080830192505050505050509192919290505050612651565b6040518080602001828103825283818151815260200191508051906020019080838360005b83811015610dea578082015181840152602081019050610dcf565b50505050905090810190601f168015610e175780820380516001836020036101000a031916815260200191505b509250505060405180910390f35b610f7560048036036040811015610e3b57600080fd5b8101908080359060200190640100000000811115610e5857600080fd5b820183602082011115610e6a57600080fd5b80359060200191846001830284011164010000000083111715610e8c57600080fd5b91908080601f016020809104026020016040519081016040528093929190818152602001838380828437600081840152601f19601f82011690508083019250505050505050919291929080359060200190640100000000811115610eef57600080fd5b820183602082011115610f0157600080fd5b80359060200191846001830284011164010000000083111715610f2357600080fd5b91908080601f016020809104026020016040519081016040528093929190818152602001838380828437600081840152601f19601f8201169050808301925050505050505091929192905050506128d5565b005b348015610f8357600080fd5b50610fb060048036036020811015610f9a57600080fd5b8101908080359060200190929190505050612dae565b60405180821515815260200191505060405180910390f35b348015610fd457600080fd5b5061100160048036036020811015610feb57600080fd5b8101908080359060200190929190505050612dcb565b6040518080602001828103825283818151815260200191508051906020019080838360005b83811015611041578082015181840152602081019050611026565b50505050905090810190601f16801561106e5780820380516001836020036101000a031916815260200191505b509250505060405180910390f35b34801561108857600080fd5b506111426004803603602081101561109f57600080fd5b81019080803590602001906401000000008111156110bc57600080fd5b8201836020820111156110ce57600080fd5b803590602001918460018302840111640100000000831117156110f057600080fd5b91908080601f016020809104026020016040519081016040528093929190818152602001838380828437600081840152601f19601f820116905080830192505050505050509192919290505050612dfc565b005b34801561115057600080fd5b506112ab6004803603606081101561116757600080fd5b81019080803590602001909291908035906020019064010000000081111561118e57600080fd5b8201836020820111156111a057600080fd5b803590602001918460018302840111640100000000831117156111c257600080fd5b91908080601f016020809104026020016040519081016040528093929190818152602001838380828437600081840152601f19601f8201169050808301925050505050505091929192908035906020019064010000000081111561122557600080fd5b82018360208201111561123757600080fd5b8035906020019184600183028401116401000000008311171561125957600080fd5b91908080601f016020809104026020016040519081016040528093929190818152602001838380828437600081840152601f19601f820116905080830192505050505050509192919290505050612e70565b005b3480156112b957600080fd5b50611373600480360360208110156112d057600080fd5b81019080803590602001906401000000008111156112ed57600080fd5b8201836020820111156112ff57600080fd5b8035906020019184600183028401116401000000008311171561132157600080fd5b91908080601f016020809104026020016040519081016040528093929190818152602001838380828437600081840152601f19601f820116905080830192505050505050509192919290505050613189565b6040518080602001828103825283818151815260200191508051906020019060200280838360005b838110156113b657808201518184015260208101905061139b565b505050509050019250505060405180910390f35b3480156113d657600080fd5b506115c8600480360360808110156113ed57600080fd5b81019080803590602001909291908035906020019064010000000081111561141457600080fd5b82018360208201111561142657600080fd5b8035906020019184600183028401116401000000008311171561144857600080fd5b91908080601f016020809104026020016040519081016040528093929190818152602001838380828437600081840152601f19601f820116905080830192505050505050509192919290803590602001906401000000008111156114ab57600080fd5b8201836020820111156114bd57600080fd5b803590602001918460018302840111640100000000831117156114df57600080fd5b91908080601f016020809104026020016040519081016040528093929190818152602001838380828437600081840152601f19601f8201169050808301925050505050505091929192908035906020019064010000000081111561154257600080fd5b82018360208201111561155457600080fd5b8035906020019184600183028401116401000000008311171561157657600080fd5b91908080601f016020809104026020016040519081016040528093929190818152602001838380828437600081840152601f19601f8201169050808301925050505050505091929192905050506132de565b005b611683600480360360208110156115e057600080fd5b81019080803590602001906401000000008111156115fd57600080fd5b82018360208201111561160f57600080fd5b8035906020019184600183028401116401000000008311171561163157600080fd5b91908080601f016020809104026020016040519081016040528093929190818152602001838380828437600081840152601f19601f8201169050808301925050505050505091929192905050506135f8565b005b34801561169157600080fd5b5061175f600480360360608110156116a857600080fd5b81019080803590602001906401000000008111156116c557600080fd5b8201836020820111156116d757600080fd5b803590602001918460018302840111640100000000831117156116f957600080fd5b91908080601f016020809104026020016040519081016040528093929190818152602001838380828437600081840152601f19601f82011690508083019250505050505050919291929080359060200190929190803590602001909291905050506136b7565b6040518080602001828103825283818151815260200191508051906020019060200280838360005b838110156117a2578082015181840152602081019050611787565b505050509050019250505060405180910390f35b3480156117c257600080fd5b5061187c600480360360208110156117d957600080fd5b81019080803590602001906401000000008111156117f657600080fd5b82018360208201111561180857600080fd5b8035906020019184600183028401116401000000008311171561182a57600080fd5b91908080601f016020809104026020016040519081016040528093929190818152602001838380828437600081840152601f19601f820116905080830192505050505050509192919290505050613b1a565b6040518082815260200191505060405180910390f35b600080600660003373ffffffffffffffffffffffffffffffffffffffff1673ffffffffffffffffffffffffffffffffffffffff16815260200190815260200160002054148061191f575042600660003373ffffffffffffffffffffffffffffffffffffffff1673ffffffffffffffffffffffffffffffffffffffff16815260200190815260200160002054105b1561192d5760019050611932565b600090505b90565b600260009054906101000a900473ffffffffffffffffffffffffffffffffffffffff1673ffffffffffffffffffffffffffffffffffffffff163373ffffffffffffffffffffffffffffffffffffffff161461198f57600080fd5b806003600084815260200190815260200160002060010190805190602001906119b9929190613ca7565b505050565b60005481565b60606119cf82613bca565b15611ae0576005826040518082805190602001908083835b60208310611a0a57805182526020820191506020810190506020830392506119e7565b6001836020036101000a03801982511681845116808217855250505050505090500191505090815260200160405180910390206000018054600181600116156101000203166002900480601f016020809104026020016040519081016040528092919081815260200182805460018160011615610100020316600290048015611ad45780601f10611aa957610100808354040283529160200191611ad4565b820191906000526020600020905b815481529060010190602001808311611ab757829003601f168201915b50505050509050611b19565b6040518060400160405280600281526020017f2d3100000000000000000000000000000000000000000000000000000000000081525090505b919050565b600060096005846040518082805190602001908083835b60208310611b585780518252602082019150602081019050602083039250611b35565b6001836020036101000a038019825116818451168082178552505050505050905001915050908152602001604051809103902060010180549050118015611c48575060006005846040518082805190602001908083835b60208310611bd25780518252602082019150602081019050602083039250611baf565b6001836020036101000a038019825116818451168082178552505050505050905001915050908152602001604051809103902060020160008473ffffffffffffffffffffffffffffffffffffffff1673ffffffffffffffffffffffffffffffffffffffff16815260200190815260200160002054145b15611c565760009050611c5b565b600190505b92915050565b60606004826040518082805190602001908083835b60208310611c995780518252602082019150602081019050602083039250611c76565b6001836020036101000a0380198251168184511680821785525050505050509050019150509081526020016040518091039020600001805480602002602001604051908101604052809291908181526020018280548015611d1957602002820191906000526020600020905b815481526020019060010190808311611d05575b50505050509050919050565b600260009054906101000a900473ffffffffffffffffffffffffffffffffffffffff1673ffffffffffffffffffffffffffffffffffffffff163373ffffffffffffffffffffffffffffffffffffffff1614611d7f57600080fd5b8173ffffffffffffffffffffffffffffffffffffffff166108fc829081150290604051600060405180830381858888f19350505050158015611dc5573d6000803e3d6000fd5b505050565b600080600660003373ffffffffffffffffffffffffffffffffffffffff1673ffffffffffffffffffffffffffffffffffffffff168152602001908152602001600020541480611e57575042600660003373ffffffffffffffffffffffffffffffffffffffff1673ffffffffffffffffffffffffffffffffffffffff16815260200190815260200160002054105b15611e655760019050611e6a565b600090505b90565b60005a9050611e7b83613bca565b156121eb576000611e8a613c90565b905084600360008381526020019081526020016000206000019080519060200190611eb6929190613ca7565b50611ec03361233f565b600360008381526020019081526020016000206002019080519060200190611ee9929190613ca7565b506004836040518082805190602001908083835b60208310611f205780518252602082019150602081019050602083039250611efd565b6001836020036101000a03801982511681845116808217855250505050505090500191505090815260200160405180910390206000018190806001815401808255809150506001900390600052602060002001600090919091909150556005846040518082805190602001908083835b60208310611fb35780518252602082019150602081019050602083039250611f90565b6001836020036101000a03801982511681845116808217855250505050505090500191505090815260200160405180910390206001018190806001815401808255809150506001900390600052602060002001600090919091909150557fcdfa64f7193689221cf62b2e407745febe1d28d0ac0c4d931531448d28c7a67481600161203d87613189565b61204e6120493361233f565b611c61565b8860405180868152602001806020018060200180602001806020018581038552898181546001816001161561010002031660029004815260200191508054600181600116156101000203166002900480156120ea5780601f106120bf576101008083540402835291602001916120ea565b820191906000526020600020905b8154815290600101906020018083116120cd57829003601f168201915b5050858103845288818151815260200191508051906020019060200280838360005b8381101561212757808201518184015260208101905061210c565b50505050905001858103835287818151815260200191508051906020019060200280838360005b8381101561216957808201518184015260208101905061214e565b50505050905001858103825286818151815260200191508051906020019080838360005b838110156121a857808201518184015260208101905061218d565b50505050905090810190601f1680156121d55780820380516001836020036101000a031916815260200191505b50995050505050505050505060405180910390a1505b6000600660003373ffffffffffffffffffffffffffffffffffffffff1673ffffffffffffffffffffffffffffffffffffffff168152602001908152602001600020541480612277575042600660003373ffffffffffffffffffffffffffffffffffffffff1673ffffffffffffffffffffffffffffffffffffffff16815260200190815260200160002054105b1561233957620151804201600660003373ffffffffffffffffffffffffffffffffffffffff1673ffffffffffffffffffffffffffffffffffffffff1681526020019081526020016000208190555060005a9050600081830390506177ec8101905060003a82029050804711156123355760003390508073ffffffffffffffffffffffffffffffffffffffff166108fc839081150290604051600060405180830381858888f19350505050158015612332573d6000803e3d6000fd5b50505b5050505b50505050565b606061238282604051602001808273ffffffffffffffffffffffffffffffffffffffff1660601b8152601401915050604051602081830303815290604052612651565b9050919050565b806005836040518082805190602001908083835b602083106123c0578051825260208201915060208101905060208303925061239d565b6001836020036101000a03801982511681845116808217855250505050505090500191505090815260200160405180910390206000019080519060200190612409929190613ca7565b505050565b6060806003600084815260200190815260200160002060000160036000858152602001908152602001600020600101818054600181600116156101000203166002900480601f0160208091040260200160405190810160405280929190818152602001828054600181600116156101000203166002900480156124d25780601f106124a7576101008083540402835291602001916124d2565b820191906000526020600020905b8154815290600101906020018083116124b557829003601f168201915b50505050509150808054600181600116156101000203166002900480601f01602080910402602001604051908101604052809291908181526020018280546001816001161561010002031660029004801561256e5780601f106125435761010080835404028352916020019161256e565b820191906000526020600020905b81548152906001019060200180831161255157829003601f168201915b5050505050905091509150915091565b606060018054600181600116156101000203166002900480601f0160208091040260200160405190810160405280929190818152602001828054600181600116156101000203166002900480156126165780601f106125eb57610100808354040283529160200191612616565b820191906000526020600020905b8154815290600101906020018083116125f957829003601f168201915b5050505050905090565b606061264a8260405160200180828152602001915050604051602081830303815290604052612651565b9050919050565b606060006040518060400160405280601081526020017f303132333435363738396162636465660000000000000000000000000000000081525090506000600284510260020167ffffffffffffffff811180156126ad57600080fd5b506040519080825280601f01601f1916602001820160405280156126e05781602001600182028036833780820191505090505b5090507f30000000000000000000000000000000000000000000000000000000000000008160008151811061271157fe5b60200101907effffffffffffffffffffffffffffffffffffffffffffffffffffffffffffff1916908160001a9053507f78000000000000000000000000000000000000000000000000000000000000008160018151811061276e57fe5b60200101907effffffffffffffffffffffffffffffffffffffffffffffffffffffffffffff1916908160001a90535060005b84518110156128ca578260048683815181106127b857fe5b602001015160f81c60f81b7effffffffffffffffffffffffffffffffffffffffffffffffffffffffffffff1916901c60f81c60ff16815181106127f757fe5b602001015160f81c60f81b82600283026002018151811061281457fe5b60200101907effffffffffffffffffffffffffffffffffffffffffffffffffffffffffffff1916908160001a90535082600f60f81b86838151811061285557fe5b602001015160f81c60f81b1660f81c60ff168151811061287157fe5b602001015160f81c60f81b82600283026003018151811061288e57fe5b60200101907effffffffffffffffffffffffffffffffffffffffffffffffffffffffffffff1916908160001a90535080806001019150506127a0565b508092505050919050565b60005a90506128e382613bca565b15612c5b5760006128f2613c90565b90508360036000838152602001908152602001600020600001908051906020019061291e929190613ca7565b506129283361233f565b600360008381526020019081526020016000206002019080519060200190612951929190613ca7565b50600461295d3361233f565b6040518082805190602001908083835b60208310612990578051825260208201915060208101905060208303925061296d565b6001836020036101000a03801982511681845116808217855250505050505090500191505090815260200160405180910390206000018190806001815401808255809150506001900390600052602060002001600090919091909150556005836040518082805190602001908083835b60208310612a235780518252602082019150602081019050602083039250612a00565b6001836020036101000a03801982511681845116808217855250505050505090500191505090815260200160405180910390206001018190806001815401808255809150506001900390600052602060002001600090919091909150557fcdfa64f7193689221cf62b2e407745febe1d28d0ac0c4d931531448d28c7a674816001612aad86613189565b612abe612ab93361233f565b611c61565b876040518086815260200180602001806020018060200180602001858103855289818154600181600116156101000203166002900481526020019150805460018160011615610100020316600290048015612b5a5780601f10612b2f57610100808354040283529160200191612b5a565b820191906000526020600020905b815481529060010190602001808311612b3d57829003601f168201915b5050858103845288818151815260200191508051906020019060200280838360005b83811015612b97578082015181840152602081019050612b7c565b50505050905001858103835287818151815260200191508051906020019060200280838360005b83811015612bd9578082015181840152602081019050612bbe565b50505050905001858103825286818151815260200191508051906020019080838360005b83811015612c18578082015181840152602081019050612bfd565b50505050905090810190601f168015612c455780820380516001836020036101000a031916815260200191505b50995050505050505050505060405180910390a1505b6000600660003373ffffffffffffffffffffffffffffffffffffffff1673ffffffffffffffffffffffffffffffffffffffff168152602001908152602001600020541480612ce7575042600660003373ffffffffffffffffffffffffffffffffffffffff1673ffffffffffffffffffffffffffffffffffffffff16815260200190815260200160002054105b15612da957620151804201600660003373ffffffffffffffffffffffffffffffffffffffff1673ffffffffffffffffffffffffffffffffffffffff1681526020019081526020016000208190555060005a9050600081830390506177ec8101905060003a8202905080471115612da55760003390508073ffffffffffffffffffffffffffffffffffffffff166108fc839081150290604051600060405180830381858888f19350505050158015612da2573d6000803e3d6000fd5b50505b5050505b505050565b600081471115612dc15760019050612dc6565b600090505b919050565b6060612df58260405160200180828152602001915050604051602081830303815290604052612651565b9050919050565b600260009054906101000a900473ffffffffffffffffffffffffffffffffffffffff1673ffffffffffffffffffffffffffffffffffffffff163373ffffffffffffffffffffffffffffffffffffffff1614612e5657600080fd5b8060019080519060200190612e6c929190613ca7565b5050565b612e793361233f565b6040516020018082805190602001908083835b60208310612eaf5780518252602082019150602081019050602083039250612e8c565b6001836020036101000a03801982511681845116808217855250505050505090500191505060405160208183030381529060405280519060200120600360008581526020019081526020016000206002016040516020018082805460018160011615610100020316600290048015612f5e5780601f10612f3c576101008083540402835291820191612f5e565b820191906000526020600020905b815481529060010190602001808311612f4a575b50509150506040516020818303038152906040528051906020012014156131845781600360008581526020019081526020016000206000019080519060200190612fa9929190613ca7565b507fcdfa64f7193689221cf62b2e407745febe1d28d0ac0c4d931531448d28c7a674836001612fd784613189565b612fe8612fe33361233f565b611c61565b8560405180868152602001806020018060200180602001806020018581038552898181546001816001161561010002031660029004815260200191508054600181600116156101000203166002900480156130845780601f1061305957610100808354040283529160200191613084565b820191906000526020600020905b81548152906001019060200180831161306757829003601f168201915b5050858103845288818151815260200191508051906020019060200280838360005b838110156130c15780820151818401526020810190506130a6565b50505050905001858103835287818151815260200191508051906020019060200280838360005b838110156131035780820151818401526020810190506130e8565b50505050905001858103825286818151815260200191508051906020019080838360005b83811015613142578082015181840152602081019050613127565b50505050905090810190601f16801561316f5780820380516001836020036101000a031916815260200191505b50995050505050505050505060405180910390a15b505050565b606061319482613bca565b80156131a657506131a58233611b1e565b5b1561326d576005826040518082805190602001908083835b602083106131e157805182526020820191506020810190506020830392506131be565b6001836020036101000a038019825116818451168082178552505050505050905001915050908152602001604051809103902060010180548060200260200160405190810160405280929190818152602001828054801561326157602002820191906000526020600020905b81548152602001906001019080831161324d575b505050505090506132d9565b6000600167ffffffffffffffff8111801561328757600080fd5b506040519080825280602002602001820160405280156132b65781602001602082028036833780820191505090505b5090506000816000815181106132c857fe5b602002602001018181525050809150505b919050565b6132e73361233f565b6040516020018082805190602001908083835b6020831061331d57805182526020820191506020810190506020830392506132fa565b6001836020036101000a038019825116818451168082178552505050505050905001915050604051602081830303815290604052805190602001206003600086815260200190815260200160002060020160405160200180828054600181600116156101000203166002900480156133cc5780601f106133aa5761010080835404028352918201916133cc565b820191906000526020600020905b8154815290600101906020018083116133b8575b50509150506040516020818303038152906040528051906020012014156135f25782600360008681526020019081526020016000206000019080519060200190613417929190613ca7565b507fcdfa64f7193689221cf62b2e407745febe1d28d0ac0c4d931531448d28c7a67484600161344585613189565b6134566134513361233f565b611c61565b8660405180868152602001806020018060200180602001806020018581038552898181546001816001161561010002031660029004815260200191508054600181600116156101000203166002900480156134f25780601f106134c7576101008083540402835291602001916134f2565b820191906000526020600020905b8154815290600101906020018083116134d557829003601f168201915b5050858103845288818151815260200191508051906020019060200280838360005b8381101561352f578082015181840152602081019050613514565b50505050905001858103835287818151815260200191508051906020019060200280838360005b83811015613571578082015181840152602081019050613556565b50505050905001858103825286818151815260200191508051906020019080838360005b838110156135b0578082015181840152602081019050613595565b50505050905090810190601f1680156135dd5780820380516001836020036101000a031916815260200191505b50995050505050505050505060405180910390a15b50505050565b63773594003411156136b45760016005826040518082805190602001908083835b6020831061363c5780518252602082019150602081019050602083039250613619565b6001836020036101000a038019825116818451168082178552505050505050905001915050908152602001604051809103902060020160003373ffffffffffffffffffffffffffffffffffffffff1673ffffffffffffffffffffffffffffffffffffffff168152602001908152602001600020819055505b50565b60606136c284613bca565b15806136d557506136d38433611b1e565b155b1561374a576000600167ffffffffffffffff811180156136f457600080fd5b506040519080825280602002602001820160405280156137235781602001602082028036833780820191505090505b50905060008160008151811061373557fe5b60200260200101818152505080915050613b13565b816005856040518082805190602001908083835b60208310613781578051825260208201915060208101905060208303925061375e565b6001836020036101000a0380198251168184511680821785525050505050509050019150509081526020016040518091039020600101805490501080156137c85750600083145b1561388f576005846040518082805190602001908083835b6020831061380357805182526020820191506020810190506020830392506137e0565b6001836020036101000a038019825116818451168082178552505050505050905001915050908152602001604051809103902060010180548060200260200160405190810160405280929190818152602001828054801561388357602002820191906000526020600020905b81548152602001906001019080831161386f575b50505050509050613b13565b600082840290506005856040518082805190602001908083835b602083106138cc57805182526020820191506020810190506020830392506138a9565b6001836020036101000a03801982511681845116808217855250505050505090500191505090815260200160405180910390206001018054905081106139185760608092505050613b13565b600083820190506005866040518082805190602001908083835b602083106139555780518252602082019150602081019050602083039250613932565b6001836020036101000a0380198251168184511680821785525050505050509050019150509081526020016040518091039020600101805490508110613a08576005866040518082805190602001908083835b602083106139cb57805182526020820191506020810190506020830392506139a8565b6001836020036101000a03801982511681845116808217855250505050505090500191505090815260200160405180910390206001018054905090505b600082820367ffffffffffffffff81118015613a2357600080fd5b50604051908082528060200260200182016040528015613a525781602001602082028036833780820191505090505b50905060005b838303811015613b0b576005886040518082805190602001908083835b60208310613a985780518252602082019150602081019050602083039250613a75565b6001836020036101000a038019825116818451168082178552505050505050905001915050908152602001604051809103902060010184820181548110613adb57fe5b9060005260206000200154828281518110613af257fe5b6020026020010181815250508080600101915050613a58565b508093505050505b9392505050565b6000613b2582613bca565b15613ba1576005826040518082805190602001908083835b60208310613b605780518252602082019150602081019050602083039250613b3d565b6001836020036101000a0380198251168184511680821785525050505050509050019150509081526020016040518091039020600101805490509050613bc5565b7fffffffffffffffffffffffffffffffffffffffffffffffffffffffffffffffff90505b919050565b600080829050600d815114613be3576000915050613c8b565b60005b8151811015613c84576000828281518110613bfd57fe5b602001015160f81c60f81b9050603060f81b817effffffffffffffffffffffffffffffffffffffffffffffffffffffffffffff191610158015613c665750603960f81b817effffffffffffffffffffffffffffffffffffffffffffffffffffffffffffff191611155b613c765760009350505050613c8b565b508080600101915050613be6565b5060019150505b919050565b600080600081548092919060010191905055905090565b828054600181600116156101000203166002900490600052602060002090601f016020900481019282613cdd5760008555613d24565b82601f10613cf657805160ff1916838001178555613d24565b82800160010185558215613d24579182015b82811115613d23578251825591602001919060010190613d08565b5b509050613d319190613d35565b5090565b5b80821115613d4e576000816000905550600101613d36565b509056fea264697066735822122045a4a8942690532468c64b9a05fa47596e69ecf98474af43ac6b8c6119b251ac64736f6c63430007060033",
  "immutableReferences": {},
  "source": "// SPDX-License-Identifier: MIT\n//pragma experimental ABIEncoderV2;\npragma solidity ^0.7.0;\n\n//import \"@openzeppelin/contracts/GSN/GSNRecipient.sol\";\n\n/**\n * @title RevApp\n * @dev Stores hashes to IPFS content and implements basic logic\n */\ncontract RevApp{ // is GSNRecipient{\n\n  //Review id counter\n  uint public reviewId = 1;\n  //Holds algorithm hash\n  string algorithm;\n  //Holds owner address\n  address owner;\n\n  constructor() {\n     // Init owner of RevApp contract\n       owner = msg.sender;\n   }\n\n  //To accept payments\n  fallback() external payable {}\n\n  //For execution owner address is needed\n  modifier onlyOwner {\n    require(msg.sender == owner);\n    _;\n  }\n\n  //Execution returns gas if given constrains are false\n  modifier refundGasCost()\n  {\n    //Actual gas\n    uint remainingGasStart = gasleft();\n    _;\n    //Check if user has right to recompensation (one free insert in 24 hours)\n    if (FreeInserts[msg.sender] == 0 || FreeInserts[msg.sender] < block.timestamp) {\n      //Reinitialize time counter\n      FreeInserts[msg.sender] = block.timestamp + 1 days;\n      //Actual gas after execution\n      uint remainingGasEnd = gasleft();\n      //Gas difference\n      uint usedGas = remainingGasStart - remainingGasEnd;\n      // Add intrinsic gas and transfer gas. Need to account for gas stipend as well.\n      usedGas += 21000 + 9700;\n      // Possibly need to check max gasprice and usedGas here to limit possibility for abuse.\n      uint256 gasCost = usedGas * tx.gasprice;\n      // Refund gas cost\n      if (address(this).balance > gasCost) {\n        address payable _to = msg.sender;\n        _to.transfer(gasCost);\n      }\n    }\n  }\n\n  struct Review {\n    string content;\n    string analysis_result;\n    string author;\n  }\n\n  struct Author {\n    uint[] reviewIds;\n  }\n\n  struct Product {\n    string fileId;\n    uint[] reviewIds;\n    mapping(address => uint) payed;\n  }\n\n  // maps id to Review\n  mapping(uint256 => Review)  Reviews;\n  // maps string (address, ip address) to Author\n  mapping(string  => Author)  Authors;\n  // maps string (EAN) to Product\n  mapping(string  => Product) Products;\n  // maps address to time of next free insert possible\n  mapping(address => uint) FreeInserts;\n  //Emmited on insert and update of review\n  event InsertedReview(uint _ReviewId, string _Algorithm, uint[] _ProductReviews, uint[] _AuthorReviews, string _Product);\n\n  // inserts\n  function insertReview( string memory  _Content, string memory _Product) public payable refundGasCost{\n    if (checkEAN(_Product)) {\n      uint id = _getReviewId();\n      Reviews[id].content = _Content;\n      Reviews[id].author = toString(msg.sender);\n      Authors[toString(msg.sender)].reviewIds.push(id);\n      Products[_Product].reviewIds.push(id);\n      emit InsertedReview(id, algorithm, getReviewIdsForProduct(_Product), getReviewIdsForAuthor(toString(msg.sender)), _Product);\n    }\n  }\n\n  function insertReview( string memory  _Content, string memory _Product, string memory _User) public payable refundGasCost {\n    if (checkEAN(_Product)) {\n      uint id = _getReviewId();\n      Reviews[id].content = _Content;\n      Reviews[id].author = toString(msg.sender);\n      Authors[_User].reviewIds.push(id);\n      Products[_Product].reviewIds.push(id);\n      emit InsertedReview(id, algorithm, getReviewIdsForProduct(_Product), getReviewIdsForAuthor(toString(msg.sender)), _Product);\n    }\n  }\n\n  // Only owner\n  function _insertAlgorithm( string memory _Algorithm) public onlyOwner {\n    algorithm = _Algorithm;\n  }\n\n  function _sendRefund(address payable _to, uint256 _ammount) public payable onlyOwner{\n    // Call returns a boolean value indicating success or failure.\n    // This is the current recommended method to use.\n    _to.transfer(_ammount);\n  }\n\n  // updates\n  function updateReviewContent(uint _Id, string memory _Content, string memory _Product, string memory _User) public {\n    if (keccak256(abi.encodePacked(Reviews[_Id].author)) == keccak256(abi.encodePacked(toString(msg.sender)))) {\n      Reviews[_Id].content = _Content;\n      emit InsertedReview(_Id, algorithm, getReviewIdsForProduct(_Product),\n        getReviewIdsForAuthor(toString(msg.sender)), _Product);\n    }\n  }\n\n  function updateReviewContent(uint _Id, string memory _Content, string memory _Product) public {\n    if (keccak256(abi.encodePacked(Reviews[_Id].author)) == keccak256(abi.encodePacked(toString(msg.sender)))) {\n      Reviews[_Id].content = _Content;\n      emit InsertedReview(_Id, algorithm, getReviewIdsForProduct(_Product),\n        getReviewIdsForAuthor(toString(msg.sender)), _Product);\n    }\n  }\n\n  function updateReviewResult( uint _ReviewId, string memory _Result) public onlyOwner{\n    Reviews[_ReviewId].analysis_result = _Result;\n  }\n\n  function updateProductFile( string memory _Product, string memory _FileHash) public {\n    Products[_Product].fileId = _FileHash;\n  }\n\n  // getters\n  function _getReviewId() private returns (uint) {\n    return reviewId++;\n  }\n\n  function getProductById(string memory _Product) public returns (string memory) {\n    if (checkEAN(_Product)) {\n      return Products[_Product].fileId;\n    }\n    //Return -1 as error code, invalid product\n    return \"-1\";\n  }\n\n  function getReviewIdsForProduct(string memory _Product) view public returns (uint[] memory) {\n    //Check if EAN given (only 13 number accepting for now)\n    if (checkEAN(_Product) && checkPayment(_Product, msg.sender)) {\n          return Products[_Product].reviewIds;\n      }\n    //Return 0 as error code, invalid product\n    uint[] memory res = new uint[](1);\n    res[0] = 0;\n    return res;\n  }\n\n  function getReviewCountForProduct(string memory _Product) view public returns (int) {\n    //Check if EAN given (only 13 number accepting for now)\n    if (checkEAN(_Product)) {\n      return int(Products[_Product].reviewIds.length);\n    }\n    //Return -1 as error code, invalid product\n    return -1;\n  }\n\n  function getReviewIdsForProductByPage(string memory _Product, uint _Page, uint _PageSize) view public returns (uint[] memory) {\n    if (!checkEAN(_Product) || !checkPayment(_Product, msg.sender)){\n      //Return 0 as error code, invalid product\n      uint[] memory res = new uint[](1);\n      res[0] = 0;\n      return res;\n    }\n    if (Products[_Product].reviewIds.length < _PageSize && _Page == 0) {\n      return Products[_Product].reviewIds;\n    }\n    uint start = _Page * _PageSize;\n    if (start >= Products[_Product].reviewIds.length) {\n      uint [] memory out;\n      return out;\n    }\n    uint end = start + _PageSize;\n    if (end >= Products[_Product].reviewIds.length) {\n      end = Products[_Product].reviewIds.length;\n    }\n    uint[] memory out = new uint[](end - start);\n    for(uint i=0;i<end - start;i++){\n      out[i] = Products[_Product].reviewIds[i + start];\n    }\n    return out;\n  }\n\n  function getReviewIdsForAuthor(string memory _Author) view public returns (uint[] memory) {\n    return Authors[_Author].reviewIds;\n  }\n\n  function getReviewById(uint  _ReviewId) view public returns (string memory, string memory) {\n    return (Reviews[_ReviewId].content, Reviews[_ReviewId].analysis_result);\n  }\n\n  function getAlgorithm() view public returns (string memory) {\n    return algorithm;\n  }\n\n  function getFreeInsertForAddress() view public returns (bool) {\n    if (FreeInserts[msg.sender] == 0 || FreeInserts[msg.sender] < block.timestamp){\n      return true;\n    }\n    return false;\n  }\n\n  function payForReviews(string memory _Product) external payable {\n    if(msg.value > 0.000000002 ether) {\n      Products[_Product].payed[msg.sender] = 1;\n    }\n  }\n\n  // helper functions\n  function toString(address account) public pure returns(string memory) {\n    return toString(abi.encodePacked(account));\n  }\n\n  function toString(uint256 value) public pure returns(string memory) {\n    return toString(abi.encodePacked(value));\n  }\n\n  function toString(bytes32 value) public pure returns(string memory) {\n    return toString(abi.encodePacked(value));\n  }\n\n  function toString(bytes memory data) public pure returns(string memory) {\n    bytes memory alphabet = \"0123456789abcdef\";\n\n    bytes memory str = new bytes(2 + data.length * 2);\n    str[0] = \"0\";\n    str[1] = \"x\";\n    for (uint i = 0; i < data.length; i++) {\n      str[2+i*2] = alphabet[uint(uint8(data[i] >> 4))];\n      str[3+i*2] = alphabet[uint(uint8(data[i] & 0x0f))];\n    }\n    return string(str);\n  }\n\n  function checkEAN(string memory str) private pure returns (bool){\n    bytes memory b = bytes(str);\n    if(!(b.length == 13)) return false;\n\n    for(uint i; i<b.length; i++){\n      bytes1 char = b[i];\n\n      if(!(char >= 0x30 && char <= 0x39))\n        return false;\n    }\n    return true;\n  }\n\n  function isTime() view public returns (bool){\n    if (FreeInserts[msg.sender] == 0 || FreeInserts[msg.sender] < block.timestamp) {\n      return true;\n    }\n    return false;\n  }\n\n  function isMoney(uint256 _amount) view public returns (bool){\n    if (address(this).balance > _amount) {\n      return true;\n    }\n    return false;\n  }\n\n  function checkPayment(string memory _Product, address _User) view public returns (bool){\n    if (Products[_Product].reviewIds.length > 9 && Products[_Product].payed[_User] == 0){\n      return false;\n    }\n    return true;\n  }\n\n//GSN\n//  function acceptRelayedCall(\n//    address relay,\n//    address from,\n//    bytes   calldata encodedFunction,\n//    uint256 transactionFee,\n//    uint256 gasPrice,\n//    uint256 gasLimit,\n//    uint256 nonce,\n//    bytes   calldata approvalData,\n//    uint256 maxPossibleCharge\n//  ) external view override returns (uint256, bytes memory) {\n//    return _approveRelayedCall();\n//  }\n//\n//  // We won't do any pre or post processing, so leave _preRelayedCall and _postRelayedCall empty\n//  function _preRelayedCall(bytes memory context) internal override returns (bytes32) {\n//  }\n//\n//  function _postRelayedCall(bytes memory context, bool, uint256 actualCharge, bytes32) internal override {\n//  }\n}",
  "sourcePath": "C:/Users/k4ne/Documents/diplomka/RevApp/app/contracts/RevApp.sol",
  "compiler": {
    "name": "solc",
    "version": "0.7.6+commit.7338295f.Emscripten.clang"
  },
  "schemaVersion": "3.3.3",
  "updatedAt": "2021-03-30T12:11:47.066Z",
  "networkType": "ethereum",
  "devdoc": {
    "details": "Stores hashes to IPFS content and implements basic logic",
    "kind": "dev",
    "methods": {},
    "title": "RevApp",
    "version": 1
  },
  "userdoc": {
    "kind": "user",
    "methods": {},
    "version": 1
  }
}