{
  "contractName": "RevApp",
  "abi": [
    {
      "inputs": [],
      "stateMutability": "nonpayable",
      "type": "constructor"
    },
    {
      "anonymous": false,
      "inputs": [
        {
          "indexed": false,
          "internalType": "uint256",
          "name": "_ReviewId",
          "type": "uint256"
        },
        {
          "indexed": false,
          "internalType": "string",
          "name": "_Algorithm",
          "type": "string"
        },
        {
          "indexed": false,
          "internalType": "uint256[]",
          "name": "_ProductReviews",
          "type": "uint256[]"
        },
        {
          "indexed": false,
          "internalType": "uint256[]",
          "name": "_AuthorReviews",
          "type": "uint256[]"
        },
        {
          "indexed": false,
          "internalType": "string",
          "name": "_Product",
          "type": "string"
        }
      ],
      "name": "InsertedReview",
      "type": "event"
    },
    {
      "stateMutability": "payable",
      "type": "fallback"
    },
    {
      "inputs": [],
      "name": "reviewId",
      "outputs": [
        {
          "internalType": "uint256",
          "name": "",
          "type": "uint256"
        }
      ],
      "stateMutability": "view",
      "type": "function"
    },
    {
      "inputs": [
        {
          "internalType": "string",
          "name": "_Content",
          "type": "string"
        },
        {
          "internalType": "string",
          "name": "_Product",
          "type": "string"
        },
        {
          "internalType": "string",
          "name": "_User",
          "type": "string"
        }
      ],
      "name": "insertReview",
      "outputs": [],
      "stateMutability": "payable",
      "type": "function"
    },
    {
      "inputs": [
        {
          "internalType": "string",
          "name": "_Content",
          "type": "string"
        },
        {
          "internalType": "string",
          "name": "_Product",
          "type": "string"
        }
      ],
      "name": "insertReview",
      "outputs": [],
      "stateMutability": "payable",
      "type": "function"
    },
    {
      "inputs": [
        {
          "internalType": "string",
          "name": "_Algorithm",
          "type": "string"
        }
      ],
      "name": "_insertAlgorithm",
      "outputs": [],
      "stateMutability": "nonpayable",
      "type": "function"
    },
    {
      "inputs": [
        {
          "internalType": "address payable",
          "name": "_to",
          "type": "address"
        },
        {
          "internalType": "uint256",
          "name": "_ammount",
          "type": "uint256"
        }
      ],
      "name": "_sendRefund",
      "outputs": [],
      "stateMutability": "payable",
      "type": "function"
    },
    {
      "inputs": [
        {
          "internalType": "uint256",
          "name": "_Id",
          "type": "uint256"
        },
        {
          "internalType": "string",
          "name": "_Content",
          "type": "string"
        },
        {
          "internalType": "string",
          "name": "_Product",
          "type": "string"
        }
      ],
      "name": "updateReviewContent",
      "outputs": [],
      "stateMutability": "nonpayable",
      "type": "function"
    },
    {
      "inputs": [
        {
          "internalType": "uint256",
          "name": "_Id",
          "type": "uint256"
        },
        {
          "internalType": "string",
          "name": "_Content",
          "type": "string"
        },
        {
          "internalType": "string",
          "name": "_Product",
          "type": "string"
        },
        {
          "internalType": "string",
          "name": "_User",
          "type": "string"
        }
      ],
      "name": "updateReviewContent",
      "outputs": [],
      "stateMutability": "nonpayable",
      "type": "function"
    },
    {
      "inputs": [
        {
          "internalType": "uint256",
          "name": "_ReviewId",
          "type": "uint256"
        },
        {
          "internalType": "string",
          "name": "_Result",
          "type": "string"
        }
      ],
      "name": "updateReviewResult",
      "outputs": [],
      "stateMutability": "nonpayable",
      "type": "function"
    },
    {
      "inputs": [
        {
          "internalType": "string",
          "name": "_Product",
          "type": "string"
        },
        {
          "internalType": "string",
          "name": "_FileHash",
          "type": "string"
        }
      ],
      "name": "updateProductFile",
      "outputs": [],
      "stateMutability": "nonpayable",
      "type": "function"
    },
    {
      "inputs": [
        {
          "internalType": "string",
          "name": "_Product",
          "type": "string"
        }
      ],
      "name": "getProductById",
      "outputs": [
        {
          "internalType": "string",
          "name": "",
          "type": "string"
        }
      ],
      "stateMutability": "nonpayable",
      "type": "function"
    },
    {
      "inputs": [
        {
          "internalType": "string",
          "name": "_Product",
          "type": "string"
        }
      ],
      "name": "getReviewIdsForProduct",
      "outputs": [
        {
          "internalType": "uint256[]",
          "name": "",
          "type": "uint256[]"
        }
      ],
      "stateMutability": "view",
      "type": "function"
    },
    {
      "inputs": [
        {
          "internalType": "string",
          "name": "_Product",
          "type": "string"
        }
      ],
      "name": "getReviewCountForProduct",
      "outputs": [
        {
          "internalType": "int256",
          "name": "",
          "type": "int256"
        }
      ],
      "stateMutability": "view",
      "type": "function"
    },
    {
      "inputs": [
        {
          "internalType": "string",
          "name": "_Product",
          "type": "string"
        },
        {
          "internalType": "uint256",
          "name": "_Page",
          "type": "uint256"
        },
        {
          "internalType": "uint256",
          "name": "_PageSize",
          "type": "uint256"
        }
      ],
      "name": "getReviewIdsForProductByPage",
      "outputs": [
        {
          "internalType": "uint256[]",
          "name": "",
          "type": "uint256[]"
        }
      ],
      "stateMutability": "view",
      "type": "function"
    },
    {
      "inputs": [
        {
          "internalType": "string",
          "name": "_Author",
          "type": "string"
        }
      ],
      "name": "getReviewIdsForAuthor",
      "outputs": [
        {
          "internalType": "uint256[]",
          "name": "",
          "type": "uint256[]"
        }
      ],
      "stateMutability": "view",
      "type": "function"
    },
    {
      "inputs": [
        {
          "internalType": "uint256",
          "name": "_ReviewId",
          "type": "uint256"
        }
      ],
      "name": "getReviewById",
      "outputs": [
        {
          "internalType": "string",
          "name": "",
          "type": "string"
        },
        {
          "internalType": "string",
          "name": "",
          "type": "string"
        }
      ],
      "stateMutability": "view",
      "type": "function"
    },
    {
      "inputs": [],
      "name": "getAlgorithm",
      "outputs": [
        {
          "internalType": "string",
          "name": "",
          "type": "string"
        }
      ],
      "stateMutability": "view",
      "type": "function"
    },
    {
      "inputs": [],
      "name": "getFreeInsertForAddress",
      "outputs": [
        {
          "internalType": "bool",
          "name": "",
          "type": "bool"
        }
      ],
      "stateMutability": "view",
      "type": "function"
    },
    {
      "inputs": [
        {
          "internalType": "address",
          "name": "account",
          "type": "address"
        }
      ],
      "name": "toString",
      "outputs": [
        {
          "internalType": "string",
          "name": "",
          "type": "string"
        }
      ],
      "stateMutability": "pure",
      "type": "function"
    },
    {
      "inputs": [
        {
          "internalType": "uint256",
          "name": "value",
          "type": "uint256"
        }
      ],
      "name": "toString",
      "outputs": [
        {
          "internalType": "string",
          "name": "",
          "type": "string"
        }
      ],
      "stateMutability": "pure",
      "type": "function"
    },
    {
      "inputs": [
        {
          "internalType": "bytes",
          "name": "data",
          "type": "bytes"
        }
      ],
      "name": "toString",
      "outputs": [
        {
          "internalType": "string",
          "name": "",
          "type": "string"
        }
      ],
      "stateMutability": "pure",
      "type": "function"
    },
    {
      "inputs": [
        {
          "internalType": "bytes32",
          "name": "value",
          "type": "bytes32"
        }
      ],
      "name": "toString",
      "outputs": [
        {
          "internalType": "string",
          "name": "",
          "type": "string"
        }
      ],
      "stateMutability": "pure",
      "type": "function"
    },
    {
      "inputs": [],
      "name": "isTime",
      "outputs": [
        {
          "internalType": "bool",
          "name": "",
          "type": "bool"
        }
      ],
      "stateMutability": "view",
      "type": "function"
    },
    {
      "inputs": [
        {
          "internalType": "uint256",
          "name": "_amount",
          "type": "uint256"
        }
      ],
      "name": "isMoney",
      "outputs": [
        {
          "internalType": "bool",
          "name": "",
          "type": "bool"
        }
      ],
      "stateMutability": "view",
      "type": "function"
    }
  ],
  "bytecode": "0x6080604052600160005534801561001557600080fd5b5033600260006101000a81548173ffffffffffffffffffffffffffffffffffffffff021916908373ffffffffffffffffffffffffffffffffffffffff160217905550613904806100666000396000f3fe6080604052600436106101445760003560e01c806362782df0116100b6578063b7e399c11161006f578063b7e399c114610f58578063bf039df914611020578063ce12d1f214611189578063d387afb5146112a6578063f616494d146114a6578063f9d15d65146115d757610145565b806362782df014610a7c5780636900a3ae14610b0c57806371aad10d14610bc057806371eac02714610d0157806384d76a5814610e53578063b11a19e814610ea457610145565b80633fc932e9116101085780633fc932e9146104cf578063405eae911461051d57806349f395731461054a57806356ca623e1461073357806356f5542b146107fd5780635dd302c11461095c57610145565b80630b899fd3146101475780630f82f2f71461017457806320fceae8146102465780632352d4aa1461027157806333170251146103b257610145565b5b005b34801561015357600080fd5b5061015c6116b3565b60405180821515815260200191505060405180910390f35b34801561018057600080fd5b506102446004803603604081101561019757600080fd5b8101908080359060200190929190803590602001906401000000008111156101be57600080fd5b8201836020820111156101d057600080fd5b803590602001918460018302840111640100000000831117156101f257600080fd5b91908080601f016020809104026020016040519081016040528093929190818152602001838380828437600081840152601f19601f820116905080830192505050505050509192919290505050611756565b005b34801561025257600080fd5b5061025b6117df565b6040518082815260200191505060405180910390f35b34801561027d57600080fd5b506103376004803603602081101561029457600080fd5b81019080803590602001906401000000008111156102b157600080fd5b8201836020820111156102c357600080fd5b803590602001918460018302840111640100000000831117156102e557600080fd5b91908080601f016020809104026020016040519081016040528093929190818152602001838380828437600081840152601f19601f8201169050808301925050505050505091929192905050506117e5565b6040518080602001828103825283818151815260200191508051906020019080838360005b8381101561037757808201518184015260208101905061035c565b50505050905090810190601f1680156103a45780820380516001836020036101000a031916815260200191505b509250505060405180910390f35b3480156103be57600080fd5b50610478600480360360208110156103d557600080fd5b81019080803590602001906401000000008111156103f257600080fd5b82018360208201111561040457600080fd5b8035906020019184600183028401116401000000008311171561042657600080fd5b91908080601f016020809104026020016040519081016040528093929190818152602001838380828437600081840152601f19601f82011690508083019250505050505050919291929050505061193f565b6040518080602001828103825283818151815260200191508051906020019060200280838360005b838110156104bb5780820151818401526020810190506104a0565b505050509050019250505060405180910390f35b61051b600480360360408110156104e557600080fd5b81019080803573ffffffffffffffffffffffffffffffffffffffff16906020019092919080359060200190929190505050611a03565b005b34801561052957600080fd5b50610532611aa8565b60405180821515815260200191505060405180910390f35b6107316004803603606081101561056057600080fd5b810190808035906020019064010000000081111561057d57600080fd5b82018360208201111561058f57600080fd5b803590602001918460018302840111640100000000831117156105b157600080fd5b91908080601f016020809104026020016040519081016040528093929190818152602001838380828437600081840152601f19601f8201169050808301925050505050505091929192908035906020019064010000000081111561061457600080fd5b82018360208201111561062657600080fd5b8035906020019184600183028401116401000000008311171561064857600080fd5b91908080601f016020809104026020016040519081016040528093929190818152602001838380828437600081840152601f19601f820116905080830192505050505050509192919290803590602001906401000000008111156106ab57600080fd5b8201836020820111156106bd57600080fd5b803590602001918460018302840111640100000000831117156106df57600080fd5b91908080601f016020809104026020016040519081016040528093929190818152602001838380828437600081840152601f19601f820116905080830192505050505050509192919290505050611b4b565b005b34801561073f57600080fd5b506107826004803603602081101561075657600080fd5b81019080803573ffffffffffffffffffffffffffffffffffffffff16906020019092919050505061201d565b6040518080602001828103825283818151815260200191508051906020019080838360005b838110156107c25780820151818401526020810190506107a7565b50505050905090810190601f1680156107ef5780820380516001836020036101000a031916815260200191505b509250505060405180910390f35b34801561080957600080fd5b5061095a6004803603604081101561082057600080fd5b810190808035906020019064010000000081111561083d57600080fd5b82018360208201111561084f57600080fd5b8035906020019184600183028401116401000000008311171561087157600080fd5b91908080601f016020809104026020016040519081016040528093929190818152602001838380828437600081840152601f19601f820116905080830192505050505050509192919290803590602001906401000000008111156108d457600080fd5b8201836020820111156108e657600080fd5b8035906020019184600183028401116401000000008311171561090857600080fd5b91908080601f016020809104026020016040519081016040528093929190818152602001838380828437600081840152601f19601f820116905080830192505050505050509192919290505050612067565b005b34801561096857600080fd5b506109956004803603602081101561097f57600080fd5b81019080803590602001909291905050506120ec565b604051808060200180602001838103835285818151815260200191508051906020019080838360005b838110156109d95780820151818401526020810190506109be565b50505050905090810190601f168015610a065780820380516001836020036101000a031916815260200191505b50838103825284818151815260200191508051906020019080838360005b83811015610a3f578082015181840152602081019050610a24565b50505050905090810190601f168015610a6c5780820380516001836020036101000a031916815260200191505b5094505050505060405180910390f35b348015610a8857600080fd5b50610a9161225c565b6040518080602001828103825283818151815260200191508051906020019080838360005b83811015610ad1578082015181840152602081019050610ab6565b50505050905090810190601f168015610afe5780820380516001836020036101000a031916815260200191505b509250505060405180910390f35b348015610b1857600080fd5b50610b4560048036036020811015610b2f57600080fd5b81019080803590602001909291905050506122fe565b6040518080602001828103825283818151815260200191508051906020019080838360005b83811015610b85578082015181840152602081019050610b6a565b50505050905090810190601f168015610bb25780820380516001836020036101000a031916815260200191505b509250505060405180910390f35b348015610bcc57600080fd5b50610c8660048036036020811015610be357600080fd5b8101908080359060200190640100000000811115610c0057600080fd5b820183602082011115610c1257600080fd5b80359060200191846001830284011164010000000083111715610c3457600080fd5b91908080601f016020809104026020016040519081016040528093929190818152602001838380828437600081840152601f19601f82011690508083019250505050505050919291929050505061232f565b6040518080602001828103825283818151815260200191508051906020019080838360005b83811015610cc6578082015181840152602081019050610cab565b50505050905090810190601f168015610cf35780820380516001836020036101000a031916815260200191505b509250505060405180910390f35b610e5160048036036040811015610d1757600080fd5b8101908080359060200190640100000000811115610d3457600080fd5b820183602082011115610d4657600080fd5b80359060200191846001830284011164010000000083111715610d6857600080fd5b91908080601f016020809104026020016040519081016040528093929190818152602001838380828437600081840152601f19601f82011690508083019250505050505050919291929080359060200190640100000000811115610dcb57600080fd5b820183602082011115610ddd57600080fd5b80359060200191846001830284011164010000000083111715610dff57600080fd5b91908080601f016020809104026020016040519081016040528093929190818152602001838380828437600081840152601f19601f8201169050808301925050505050505091929192905050506125b3565b005b348015610e5f57600080fd5b50610e8c60048036036020811015610e7657600080fd5b8101908080359060200190929190505050612a8c565b60405180821515815260200191505060405180910390f35b348015610eb057600080fd5b50610edd60048036036020811015610ec757600080fd5b8101908080359060200190929190505050612aa9565b6040518080602001828103825283818151815260200191508051906020019080838360005b83811015610f1d578082015181840152602081019050610f02565b50505050905090810190601f168015610f4a5780820380516001836020036101000a031916815260200191505b509250505060405180910390f35b348015610f6457600080fd5b5061101e60048036036020811015610f7b57600080fd5b8101908080359060200190640100000000811115610f9857600080fd5b820183602082011115610faa57600080fd5b80359060200191846001830284011164010000000083111715610fcc57600080fd5b91908080601f016020809104026020016040519081016040528093929190818152602001838380828437600081840152601f19601f820116905080830192505050505050509192919290505050612ada565b005b34801561102c57600080fd5b506111876004803603606081101561104357600080fd5b81019080803590602001909291908035906020019064010000000081111561106a57600080fd5b82018360208201111561107c57600080fd5b8035906020019184600183028401116401000000008311171561109e57600080fd5b91908080601f016020809104026020016040519081016040528093929190818152602001838380828437600081840152601f19601f8201169050808301925050505050505091929192908035906020019064010000000081111561110157600080fd5b82018360208201111561111357600080fd5b8035906020019184600183028401116401000000008311171561113557600080fd5b91908080601f016020809104026020016040519081016040528093929190818152602001838380828437600081840152601f19601f820116905080830192505050505050509192919290505050612b4e565b005b34801561119557600080fd5b5061124f600480360360208110156111ac57600080fd5b81019080803590602001906401000000008111156111c957600080fd5b8201836020820111156111db57600080fd5b803590602001918460018302840111640100000000831117156111fd57600080fd5b91908080601f016020809104026020016040519081016040528093929190818152602001838380828437600081840152601f19601f820116905080830192505050505050509192919290505050612e67565b6040518080602001828103825283818151815260200191508051906020019060200280838360005b83811015611292578082015181840152602081019050611277565b505050509050019250505060405180910390f35b3480156112b257600080fd5b506114a4600480360360808110156112c957600080fd5b8101908080359060200190929190803590602001906401000000008111156112f057600080fd5b82018360208201111561130257600080fd5b8035906020019184600183028401116401000000008311171561132457600080fd5b91908080601f016020809104026020016040519081016040528093929190818152602001838380828437600081840152601f19601f8201169050808301925050505050505091929192908035906020019064010000000081111561138757600080fd5b82018360208201111561139957600080fd5b803590602001918460018302840111640100000000831117156113bb57600080fd5b91908080601f016020809104026020016040519081016040528093929190818152602001838380828437600081840152601f19601f8201169050808301925050505050505091929192908035906020019064010000000081111561141e57600080fd5b82018360208201111561143057600080fd5b8035906020019184600183028401116401000000008311171561145257600080fd5b91908080601f016020809104026020016040519081016040528093929190818152602001838380828437600081840152601f19601f820116905080830192505050505050509192919290505050612faa565b005b3480156114b257600080fd5b50611580600480360360608110156114c957600080fd5b81019080803590602001906401000000008111156114e657600080fd5b8201836020820111156114f857600080fd5b8035906020019184600183028401116401000000008311171561151a57600080fd5b91908080601f016020809104026020016040519081016040528093929190818152602001838380828437600081840152601f19601f82011690508083019250505050505050919291929080359060200190929190803590602001909291905050506132c4565b6040518080602001828103825283818151815260200191508051906020019060200280838360005b838110156115c35780820151818401526020810190506115a8565b505050509050019250505060405180910390f35b3480156115e357600080fd5b5061169d600480360360208110156115fa57600080fd5b810190808035906020019064010000000081111561161757600080fd5b82018360208201111561162957600080fd5b8035906020019184600183028401116401000000008311171561164b57600080fd5b91908080601f016020809104026020016040519081016040528093929190818152602001838380828437600081840152601f19601f820116905080830192505050505050509192919290505050613696565b6040518082815260200191505060405180910390f35b600080600660003373ffffffffffffffffffffffffffffffffffffffff1673ffffffffffffffffffffffffffffffffffffffff168152602001908152602001600020541480611740575042600660003373ffffffffffffffffffffffffffffffffffffffff1673ffffffffffffffffffffffffffffffffffffffff16815260200190815260200160002054105b1561174e5760019050611753565b600090505b90565b600260009054906101000a900473ffffffffffffffffffffffffffffffffffffffff1673ffffffffffffffffffffffffffffffffffffffff163373ffffffffffffffffffffffffffffffffffffffff16146117b057600080fd5b806003600084815260200190815260200160002060010190805190602001906117da929190613823565b505050565b60005481565b60606117f082613746565b15611901576005826040518082805190602001908083835b6020831061182b5780518252602082019150602081019050602083039250611808565b6001836020036101000a03801982511681845116808217855250505050505090500191505090815260200160405180910390206000018054600181600116156101000203166002900480601f0160208091040260200160405190810160405280929190818152602001828054600181600116156101000203166002900480156118f55780601f106118ca576101008083540402835291602001916118f5565b820191906000526020600020905b8154815290600101906020018083116118d857829003601f168201915b5050505050905061193a565b6040518060400160405280600281526020017f2d3100000000000000000000000000000000000000000000000000000000000081525090505b919050565b60606004826040518082805190602001908083835b602083106119775780518252602082019150602081019050602083039250611954565b6001836020036101000a03801982511681845116808217855250505050505090500191505090815260200160405180910390206000018054806020026020016040519081016040528092919081815260200182805480156119f757602002820191906000526020600020905b8154815260200190600101908083116119e3575b50505050509050919050565b600260009054906101000a900473ffffffffffffffffffffffffffffffffffffffff1673ffffffffffffffffffffffffffffffffffffffff163373ffffffffffffffffffffffffffffffffffffffff1614611a5d57600080fd5b8173ffffffffffffffffffffffffffffffffffffffff166108fc829081150290604051600060405180830381858888f19350505050158015611aa3573d6000803e3d6000fd5b505050565b600080600660003373ffffffffffffffffffffffffffffffffffffffff1673ffffffffffffffffffffffffffffffffffffffff168152602001908152602001600020541480611b35575042600660003373ffffffffffffffffffffffffffffffffffffffff1673ffffffffffffffffffffffffffffffffffffffff16815260200190815260200160002054105b15611b435760019050611b48565b600090505b90565b60005a9050611b5983613746565b15611ec9576000611b6861380c565b905084600360008381526020019081526020016000206000019080519060200190611b94929190613823565b50611b9e3361201d565b600360008381526020019081526020016000206002019080519060200190611bc7929190613823565b506004836040518082805190602001908083835b60208310611bfe5780518252602082019150602081019050602083039250611bdb565b6001836020036101000a03801982511681845116808217855250505050505090500191505090815260200160405180910390206000018190806001815401808255809150506001900390600052602060002001600090919091909150556005846040518082805190602001908083835b60208310611c915780518252602082019150602081019050602083039250611c6e565b6001836020036101000a03801982511681845116808217855250505050505090500191505090815260200160405180910390206001018190806001815401808255809150506001900390600052602060002001600090919091909150557fcdfa64f7193689221cf62b2e407745febe1d28d0ac0c4d931531448d28c7a674816001611d1b87612e67565b611d2c611d273361201d565b61193f565b886040518086815260200180602001806020018060200180602001858103855289818154600181600116156101000203166002900481526020019150805460018160011615610100020316600290048015611dc85780601f10611d9d57610100808354040283529160200191611dc8565b820191906000526020600020905b815481529060010190602001808311611dab57829003601f168201915b5050858103845288818151815260200191508051906020019060200280838360005b83811015611e05578082015181840152602081019050611dea565b50505050905001858103835287818151815260200191508051906020019060200280838360005b83811015611e47578082015181840152602081019050611e2c565b50505050905001858103825286818151815260200191508051906020019080838360005b83811015611e86578082015181840152602081019050611e6b565b50505050905090810190601f168015611eb35780820380516001836020036101000a031916815260200191505b50995050505050505050505060405180910390a1505b6000600660003373ffffffffffffffffffffffffffffffffffffffff1673ffffffffffffffffffffffffffffffffffffffff168152602001908152602001600020541480611f55575042600660003373ffffffffffffffffffffffffffffffffffffffff1673ffffffffffffffffffffffffffffffffffffffff16815260200190815260200160002054105b1561201757620151804201600660003373ffffffffffffffffffffffffffffffffffffffff1673ffffffffffffffffffffffffffffffffffffffff1681526020019081526020016000208190555060005a9050600081830390506177ec8101905060003a82029050804711156120135760003390508073ffffffffffffffffffffffffffffffffffffffff166108fc839081150290604051600060405180830381858888f19350505050158015612010573d6000803e3d6000fd5b50505b5050505b50505050565b606061206082604051602001808273ffffffffffffffffffffffffffffffffffffffff1660601b815260140191505060405160208183030381529060405261232f565b9050919050565b806005836040518082805190602001908083835b6020831061209e578051825260208201915060208101905060208303925061207b565b6001836020036101000a038019825116818451168082178552505050505050905001915050908152602001604051809103902060000190805190602001906120e7929190613823565b505050565b6060806003600084815260200190815260200160002060000160036000858152602001908152602001600020600101818054600181600116156101000203166002900480601f0160208091040260200160405190810160405280929190818152602001828054600181600116156101000203166002900480156121b05780601f10612185576101008083540402835291602001916121b0565b820191906000526020600020905b81548152906001019060200180831161219357829003601f168201915b50505050509150808054600181600116156101000203166002900480601f01602080910402602001604051908101604052809291908181526020018280546001816001161561010002031660029004801561224c5780601f106122215761010080835404028352916020019161224c565b820191906000526020600020905b81548152906001019060200180831161222f57829003601f168201915b5050505050905091509150915091565b606060018054600181600116156101000203166002900480601f0160208091040260200160405190810160405280929190818152602001828054600181600116156101000203166002900480156122f45780601f106122c9576101008083540402835291602001916122f4565b820191906000526020600020905b8154815290600101906020018083116122d757829003601f168201915b5050505050905090565b6060612328826040516020018082815260200191505060405160208183030381529060405261232f565b9050919050565b606060006040518060400160405280601081526020017f303132333435363738396162636465660000000000000000000000000000000081525090506000600284510260020167ffffffffffffffff8111801561238b57600080fd5b506040519080825280601f01601f1916602001820160405280156123be5781602001600182028036833780820191505090505b5090507f3000000000000000000000000000000000000000000000000000000000000000816000815181106123ef57fe5b60200101907effffffffffffffffffffffffffffffffffffffffffffffffffffffffffffff1916908160001a9053507f78000000000000000000000000000000000000000000000000000000000000008160018151811061244c57fe5b60200101907effffffffffffffffffffffffffffffffffffffffffffffffffffffffffffff1916908160001a90535060005b84518110156125a85782600486838151811061249657fe5b602001015160f81c60f81b7effffffffffffffffffffffffffffffffffffffffffffffffffffffffffffff1916901c60f81c60ff16815181106124d557fe5b602001015160f81c60f81b8260028302600201815181106124f257fe5b60200101907effffffffffffffffffffffffffffffffffffffffffffffffffffffffffffff1916908160001a90535082600f60f81b86838151811061253357fe5b602001015160f81c60f81b1660f81c60ff168151811061254f57fe5b602001015160f81c60f81b82600283026003018151811061256c57fe5b60200101907effffffffffffffffffffffffffffffffffffffffffffffffffffffffffffff1916908160001a905350808060010191505061247e565b508092505050919050565b60005a90506125c182613746565b156129395760006125d061380c565b9050836003600083815260200190815260200160002060000190805190602001906125fc929190613823565b506126063361201d565b60036000838152602001908152602001600020600201908051906020019061262f929190613823565b50600461263b3361201d565b6040518082805190602001908083835b6020831061266e578051825260208201915060208101905060208303925061264b565b6001836020036101000a03801982511681845116808217855250505050505090500191505090815260200160405180910390206000018190806001815401808255809150506001900390600052602060002001600090919091909150556005836040518082805190602001908083835b6020831061270157805182526020820191506020810190506020830392506126de565b6001836020036101000a03801982511681845116808217855250505050505090500191505090815260200160405180910390206001018190806001815401808255809150506001900390600052602060002001600090919091909150557fcdfa64f7193689221cf62b2e407745febe1d28d0ac0c4d931531448d28c7a67481600161278b86612e67565b61279c6127973361201d565b61193f565b8760405180868152602001806020018060200180602001806020018581038552898181546001816001161561010002031660029004815260200191508054600181600116156101000203166002900480156128385780601f1061280d57610100808354040283529160200191612838565b820191906000526020600020905b81548152906001019060200180831161281b57829003601f168201915b5050858103845288818151815260200191508051906020019060200280838360005b8381101561287557808201518184015260208101905061285a565b50505050905001858103835287818151815260200191508051906020019060200280838360005b838110156128b757808201518184015260208101905061289c565b50505050905001858103825286818151815260200191508051906020019080838360005b838110156128f65780820151818401526020810190506128db565b50505050905090810190601f1680156129235780820380516001836020036101000a031916815260200191505b50995050505050505050505060405180910390a1505b6000600660003373ffffffffffffffffffffffffffffffffffffffff1673ffffffffffffffffffffffffffffffffffffffff1681526020019081526020016000205414806129c5575042600660003373ffffffffffffffffffffffffffffffffffffffff1673ffffffffffffffffffffffffffffffffffffffff16815260200190815260200160002054105b15612a8757620151804201600660003373ffffffffffffffffffffffffffffffffffffffff1673ffffffffffffffffffffffffffffffffffffffff1681526020019081526020016000208190555060005a9050600081830390506177ec8101905060003a8202905080471115612a835760003390508073ffffffffffffffffffffffffffffffffffffffff166108fc839081150290604051600060405180830381858888f19350505050158015612a80573d6000803e3d6000fd5b50505b5050505b505050565b600081471115612a9f5760019050612aa4565b600090505b919050565b6060612ad3826040516020018082815260200191505060405160208183030381529060405261232f565b9050919050565b600260009054906101000a900473ffffffffffffffffffffffffffffffffffffffff1673ffffffffffffffffffffffffffffffffffffffff163373ffffffffffffffffffffffffffffffffffffffff1614612b3457600080fd5b8060019080519060200190612b4a929190613823565b5050565b612b573361201d565b6040516020018082805190602001908083835b60208310612b8d5780518252602082019150602081019050602083039250612b6a565b6001836020036101000a03801982511681845116808217855250505050505090500191505060405160208183030381529060405280519060200120600360008581526020019081526020016000206002016040516020018082805460018160011615610100020316600290048015612c3c5780601f10612c1a576101008083540402835291820191612c3c565b820191906000526020600020905b815481529060010190602001808311612c28575b5050915050604051602081830303815290604052805190602001201415612e625781600360008581526020019081526020016000206000019080519060200190612c87929190613823565b507fcdfa64f7193689221cf62b2e407745febe1d28d0ac0c4d931531448d28c7a674836001612cb584612e67565b612cc6612cc13361201d565b61193f565b856040518086815260200180602001806020018060200180602001858103855289818154600181600116156101000203166002900481526020019150805460018160011615610100020316600290048015612d625780601f10612d3757610100808354040283529160200191612d62565b820191906000526020600020905b815481529060010190602001808311612d4557829003601f168201915b5050858103845288818151815260200191508051906020019060200280838360005b83811015612d9f578082015181840152602081019050612d84565b50505050905001858103835287818151815260200191508051906020019060200280838360005b83811015612de1578082015181840152602081019050612dc6565b50505050905001858103825286818151815260200191508051906020019080838360005b83811015612e20578082015181840152602081019050612e05565b50505050905090810190601f168015612e4d5780820380516001836020036101000a031916815260200191505b50995050505050505050505060405180910390a15b505050565b6060612e7282613746565b15612f39576005826040518082805190602001908083835b60208310612ead5780518252602082019150602081019050602083039250612e8a565b6001836020036101000a0380198251168184511680821785525050505050509050019150509081526020016040518091039020600101805480602002602001604051908101604052809291908181526020018280548015612f2d57602002820191906000526020600020905b815481526020019060010190808311612f19575b50505050509050612fa5565b6000600167ffffffffffffffff81118015612f5357600080fd5b50604051908082528060200260200182016040528015612f825781602001602082028036833780820191505090505b509050600081600081518110612f9457fe5b602002602001018181525050809150505b919050565b612fb33361201d565b6040516020018082805190602001908083835b60208310612fe95780518252602082019150602081019050602083039250612fc6565b6001836020036101000a038019825116818451168082178552505050505050905001915050604051602081830303815290604052805190602001206003600086815260200190815260200160002060020160405160200180828054600181600116156101000203166002900480156130985780601f10613076576101008083540402835291820191613098565b820191906000526020600020905b815481529060010190602001808311613084575b50509150506040516020818303038152906040528051906020012014156132be57826003600086815260200190815260200160002060000190805190602001906130e3929190613823565b507fcdfa64f7193689221cf62b2e407745febe1d28d0ac0c4d931531448d28c7a67484600161311185612e67565b61312261311d3361201d565b61193f565b8660405180868152602001806020018060200180602001806020018581038552898181546001816001161561010002031660029004815260200191508054600181600116156101000203166002900480156131be5780601f10613193576101008083540402835291602001916131be565b820191906000526020600020905b8154815290600101906020018083116131a157829003601f168201915b5050858103845288818151815260200191508051906020019060200280838360005b838110156131fb5780820151818401526020810190506131e0565b50505050905001858103835287818151815260200191508051906020019060200280838360005b8381101561323d578082015181840152602081019050613222565b50505050905001858103825286818151815260200191508051906020019080838360005b8381101561327c578082015181840152602081019050613261565b50505050905090810190601f1680156132a95780820380516001836020036101000a031916815260200191505b50995050505050505050505060405180910390a15b50505050565b6060816005856040518082805190602001908083835b602083106132fd57805182526020820191506020810190506020830392506132da565b6001836020036101000a0380198251168184511680821785525050505050509050019150509081526020016040518091039020600101805490501080156133445750600083145b1561340b576005846040518082805190602001908083835b6020831061337f578051825260208201915060208101905060208303925061335c565b6001836020036101000a03801982511681845116808217855250505050505090500191505090815260200160405180910390206001018054806020026020016040519081016040528092919081815260200182805480156133ff57602002820191906000526020600020905b8154815260200190600101908083116133eb575b5050505050905061368f565b600082840290506005856040518082805190602001908083835b602083106134485780518252602082019150602081019050602083039250613425565b6001836020036101000a0380198251168184511680821785525050505050509050019150509081526020016040518091039020600101805490508110613494576060809250505061368f565b600083820190506005866040518082805190602001908083835b602083106134d157805182526020820191506020810190506020830392506134ae565b6001836020036101000a0380198251168184511680821785525050505050509050019150509081526020016040518091039020600101805490508110613584576005866040518082805190602001908083835b602083106135475780518252602082019150602081019050602083039250613524565b6001836020036101000a03801982511681845116808217855250505050505090500191505090815260200160405180910390206001018054905090505b600082820367ffffffffffffffff8111801561359f57600080fd5b506040519080825280602002602001820160405280156135ce5781602001602082028036833780820191505090505b50905060005b838303811015613687576005886040518082805190602001908083835b6020831061361457805182526020820191506020810190506020830392506135f1565b6001836020036101000a03801982511681845116808217855250505050505090500191505090815260200160405180910390206001018482018154811061365757fe5b906000526020600020015482828151811061366e57fe5b60200260200101818152505080806001019150506135d4565b508093505050505b9392505050565b60006136a182613746565b1561371d576005826040518082805190602001908083835b602083106136dc57805182526020820191506020810190506020830392506136b9565b6001836020036101000a0380198251168184511680821785525050505050509050019150509081526020016040518091039020600101805490509050613741565b7fffffffffffffffffffffffffffffffffffffffffffffffffffffffffffffffff90505b919050565b600080829050600d81511461375f576000915050613807565b60005b815181101561380057600082828151811061377957fe5b602001015160f81c60f81b9050603060f81b817effffffffffffffffffffffffffffffffffffffffffffffffffffffffffffff1916101580156137e25750603960f81b817effffffffffffffffffffffffffffffffffffffffffffffffffffffffffffff191611155b6137f25760009350505050613807565b508080600101915050613762565b5060019150505b919050565b600080600081548092919060010191905055905090565b828054600181600116156101000203166002900490600052602060002090601f01602090048101928261385957600085556138a0565b82601f1061387257805160ff19168380011785556138a0565b828001600101855582156138a0579182015b8281111561389f578251825591602001919060010190613884565b5b5090506138ad91906138b1565b5090565b5b808211156138ca5760008160009055506001016138b2565b509056fea2646970667358221220ae56b087d94e692b0c1af8dd08da63544ca4a51583f5742a699eace69f80012e64736f6c63430007060033",
  "immutableReferences": {},
  "source": "// SPDX-License-Identifier: MIT\n//pragma experimental ABIEncoderV2;\npragma solidity ^0.7.0;\n\n//import \"@openzeppelin/contracts/GSN/GSNRecipient.sol\";\n\n/**\n * @title RevApp\n * @dev Stores hashes to IPFS content and implements basic logic\n */\ncontract RevApp{ // is GSNRecipient{\n\n  //Review id counter\n  uint public reviewId = 1;\n  //Holds algorithm hash\n  string algorithm;\n  //Holds owner address\n  address owner;\n\n  constructor() {\n     // Init owner of RevApp contract\n       owner = msg.sender;\n   }\n\n  //To accept payments\n  fallback() external payable {}\n\n  //For execution owner address is needed\n  modifier onlyOwner {\n    require(msg.sender == owner);\n    _;\n  }\n\n  //Execution returns gas if given constrains are false\n  modifier refundGasCost()\n  {\n    //Actual gas\n    uint remainingGasStart = gasleft();\n    _;\n    //Check if user has right to recompensation (one free insert in 24 hours)\n    if (FreeInserts[msg.sender] == 0 || FreeInserts[msg.sender] < block.timestamp) {\n      //Reinitialize time counter\n      FreeInserts[msg.sender] = block.timestamp + 1 days;\n      //Actual gas after execution\n      uint remainingGasEnd = gasleft();\n      //Gas difference\n      uint usedGas = remainingGasStart - remainingGasEnd;\n      // Add intrinsic gas and transfer gas. Need to account for gas stipend as well.\n      usedGas += 21000 + 9700;\n      // Possibly need to check max gasprice and usedGas here to limit possibility for abuse.\n      uint256 gasCost = usedGas * tx.gasprice;\n      // Refund gas cost\n      if (address(this).balance > gasCost) {\n        address payable _to = msg.sender;\n        _to.transfer(gasCost);\n      }\n    }\n  }\n\n  struct Review {\n    string content;\n    string analysis_result;\n    string author;\n  }\n\n  struct Author {\n    uint[] reviewIds;\n  }\n\n  struct Product {\n    string fileId;\n    uint[] reviewIds;\n  }\n\n  // maps id to Review\n  mapping(uint256 => Review)  Reviews;\n  // maps string (address, ip address) to Author\n  mapping(string  => Author)  Authors;\n  // maps string (EAN) to Product\n  mapping(string  => Product) Products;\n  // maps address to time of next free insert possible\n  mapping(address => uint) FreeInserts;\n  //Emmited on insert and update of review\n  event InsertedReview(uint _ReviewId, string _Algorithm, uint[] _ProductReviews, uint[] _AuthorReviews, string _Product);\n\n  // inserts\n  function insertReview( string memory  _Content, string memory _Product) public payable refundGasCost{\n    if (checkEAN(_Product)) {\n      uint id = _getReviewId();\n      Reviews[id].content = _Content;\n      Reviews[id].author = toString(msg.sender);\n      Authors[toString(msg.sender)].reviewIds.push(id);\n      Products[_Product].reviewIds.push(id);\n      emit InsertedReview(id, algorithm, getReviewIdsForProduct(_Product), getReviewIdsForAuthor(toString(msg.sender)), _Product);\n    }\n  }\n\n  function insertReview( string memory  _Content, string memory _Product, string memory _User) public payable refundGasCost {\n    if (checkEAN(_Product)) {\n      uint id = _getReviewId();\n      Reviews[id].content = _Content;\n      Reviews[id].author = toString(msg.sender);\n      Authors[_User].reviewIds.push(id);\n      Products[_Product].reviewIds.push(id);\n      emit InsertedReview(id, algorithm, getReviewIdsForProduct(_Product), getReviewIdsForAuthor(toString(msg.sender)), _Product);\n    }\n  }\n\n  // Only owner\n  function _insertAlgorithm( string memory _Algorithm) public onlyOwner {\n    algorithm = _Algorithm;\n  }\n\n  function _sendRefund(address payable _to, uint256 _ammount) public payable onlyOwner{\n    // Call returns a boolean value indicating success or failure.\n    // This is the current recommended method to use.\n    _to.transfer(_ammount);\n  }\n\n  // updates\n  function updateReviewContent(uint _Id, string memory _Content, string memory _Product, string memory _User) public {\n    if (keccak256(abi.encodePacked(Reviews[_Id].author)) == keccak256(abi.encodePacked(toString(msg.sender)))) {\n      Reviews[_Id].content = _Content;\n      emit InsertedReview(_Id, algorithm, getReviewIdsForProduct(_Product),\n        getReviewIdsForAuthor(toString(msg.sender)), _Product);\n    }\n  }\n\n  function updateReviewContent(uint _Id, string memory _Content, string memory _Product) public {\n    if (keccak256(abi.encodePacked(Reviews[_Id].author)) == keccak256(abi.encodePacked(toString(msg.sender)))) {\n      Reviews[_Id].content = _Content;\n      emit InsertedReview(_Id, algorithm, getReviewIdsForProduct(_Product),\n        getReviewIdsForAuthor(toString(msg.sender)), _Product);\n    }\n  }\n\n  function updateReviewResult( uint _ReviewId, string memory _Result) public onlyOwner{\n    Reviews[_ReviewId].analysis_result = _Result;\n  }\n\n  function updateProductFile( string memory _Product, string memory _FileHash) public {\n    Products[_Product].fileId = _FileHash;\n  }\n\n  // getters\n  function _getReviewId() private returns (uint) {\n    return reviewId++;\n  }\n\n  function getProductById(string memory _Product) public returns (string memory) {\n    if (checkEAN(_Product)) {\n      return Products[_Product].fileId;\n    }\n    //Return -1 as error code, invalid product\n    return \"-1\";\n  }\n\n  function getReviewIdsForProduct(string memory _Product) view public returns (uint[] memory) {\n    //Check if EAN given (only 13 number accepting for now)\n    if (checkEAN(_Product)) {\n      return Products[_Product].reviewIds;\n    }\n    //Return 0 as error code, invalid product\n    uint[] memory res = new uint[](1);\n    res[0] = 0;\n    return res;\n  }\n\n  function getReviewCountForProduct(string memory _Product) view public returns (int) {\n    //Check if EAN given (only 13 number accepting for now)\n    if (checkEAN(_Product)) {\n      return int(Products[_Product].reviewIds.length);\n    }\n    //Return -1 as error code, invalid product\n    return -1;\n  }\n\n  function getReviewIdsForProductByPage(string memory _Product, uint _Page, uint _PageSize) view public returns (uint[] memory) {\n    if (Products[_Product].reviewIds.length < _PageSize && _Page == 0) {\n      return Products[_Product].reviewIds;\n    }\n    uint start = _Page * _PageSize;\n    if (start >= Products[_Product].reviewIds.length) {\n      uint [] memory out;\n      return out;\n    }\n    uint end = start + _PageSize;\n    if (end >= Products[_Product].reviewIds.length) {\n      end = Products[_Product].reviewIds.length;\n    }\n    uint[] memory out = new uint[](end - start);\n    for(uint i=0;i<end - start;i++){\n      out[i] = Products[_Product].reviewIds[i + start];\n    }\n    return out;\n  }\n\n  function getReviewIdsForAuthor(string memory _Author) view public returns (uint[] memory) {\n    return Authors[_Author].reviewIds;\n  }\n\n  function getReviewById(uint  _ReviewId) view public returns (string memory, string memory) {\n    return (Reviews[_ReviewId].content, Reviews[_ReviewId].analysis_result);\n  }\n\n  function getAlgorithm() view public returns (string memory) {\n    return algorithm;\n  }\n\n  function getFreeInsertForAddress() view public returns (bool) {\n    if (FreeInserts[msg.sender] == 0 || FreeInserts[msg.sender] < block.timestamp){\n      return true;\n    }\n    return false;\n  }\n\n  // helper functions\n  function toString(address account) public pure returns(string memory) {\n    return toString(abi.encodePacked(account));\n  }\n\n  function toString(uint256 value) public pure returns(string memory) {\n    return toString(abi.encodePacked(value));\n  }\n\n  function toString(bytes32 value) public pure returns(string memory) {\n    return toString(abi.encodePacked(value));\n  }\n\n  function toString(bytes memory data) public pure returns(string memory) {\n    bytes memory alphabet = \"0123456789abcdef\";\n\n    bytes memory str = new bytes(2 + data.length * 2);\n    str[0] = \"0\";\n    str[1] = \"x\";\n    for (uint i = 0; i < data.length; i++) {\n      str[2+i*2] = alphabet[uint(uint8(data[i] >> 4))];\n      str[3+i*2] = alphabet[uint(uint8(data[i] & 0x0f))];\n    }\n    return string(str);\n  }\n\n  function checkEAN(string memory str) private pure returns (bool){\n    bytes memory b = bytes(str);\n    if(!(b.length == 13)) return false;\n\n    for(uint i; i<b.length; i++){\n      bytes1 char = b[i];\n\n      if(!(char >= 0x30 && char <= 0x39))\n        return false;\n    }\n    return true;\n  }\n\n  function isTime() view public returns (bool){\n    if (FreeInserts[msg.sender] == 0 || FreeInserts[msg.sender] < block.timestamp) {\n      return true;\n    }\n    return false;\n  }\n\n  function isMoney(uint256 _amount) view public returns (bool){\n    if (address(this).balance > _amount) {\n      return true;\n    }\n    return false;\n  }\n\n//GSN\n//  function acceptRelayedCall(\n//    address relay,\n//    address from,\n//    bytes   calldata encodedFunction,\n//    uint256 transactionFee,\n//    uint256 gasPrice,\n//    uint256 gasLimit,\n//    uint256 nonce,\n//    bytes   calldata approvalData,\n//    uint256 maxPossibleCharge\n//  ) external view override returns (uint256, bytes memory) {\n//    return _approveRelayedCall();\n//  }\n//\n//  // We won't do any pre or post processing, so leave _preRelayedCall and _postRelayedCall empty\n//  function _preRelayedCall(bytes memory context) internal override returns (bytes32) {\n//  }\n//\n//  function _postRelayedCall(bytes memory context, bool, uint256 actualCharge, bytes32) internal override {\n//  }\n}",
  "sourcePath": "C:/Users/k4ne/Documents/diplomka/RevApp/app/contracts/RevApp.sol",
  "compiler": {
    "name": "solc",
    "version": "0.7.6+commit.7338295f.Emscripten.clang"
  },
  "schemaVersion": "3.3.3",
  "updatedAt": "2021-03-24T06:57:27.836Z",
  "devdoc": {
    "details": "Stores hashes to IPFS content and implements basic logic",
    "kind": "dev",
    "methods": {},
    "title": "RevApp",
    "version": 1
  },
  "userdoc": {
    "kind": "user",
    "methods": {},
    "version": 1
  }
}